:100000000C942A000C9447000C9447000C94470071
:100010000C9447000C9447000C9447000C94470044
:100020000C9447000C9447000C9447000C94470034
:100030000C9447000C9447000C9447000C94470024
:100040000C9447000C9447000C9447000C94470014
:100050000C94470011241FBECFE5D4E0DEBFCDBF16
:1000600010E0A0E6B0E0E8E6FBE002C005900D92EB
:10007000AE38B107D9F720E0AEE8B0E001C01D927C
:10008000A439B207E1F70E94CE010C94B2050C949A
:10009000000080E687B986E086B9089597B1987F19
:1000A0008770892B87B9089586B1806C86B9369B95
:1000B00003C000003699FDCF84B125B190E0922BAA
:1000C0000895DC9A84E18A95F1F7DC9884E18A95B9
:1000D000F1F7089598B39B7198BB88230CF4C79AE5
:1000E00086FDC69A85FDC59A84FDC29A0E9461006C
:1000F0000895CF93C82FDE980E946A008C2F8295B6
:10010000807F0E946A0084E98A95F1F7CF91089573
:10011000CF93C82FDE9A0E946A008C2F8295807F31
:100120000E946A0084E98A95F1F7CF910895CF93F0
:10013000DF93EC018881882331F021960E948800AA
:1001400089918111FBCFDF91CF91089581E00E94C9
:1001500079008FE697E10197F1F700C0000008955C
:100160008AB380658ABB87B3846E87BB8BB38F7A73
:100170008BBB88B38B7188BB8FE295E70197F1F752
:1001800000C0000080E20E946A0094E99A95F1F7AD
:1001900088E20E9479008CE00E94790086E00E944B
:1001A00079000E94A600089582E00E9479008FE6FF
:1001B00097E10197F1F700C000000895613051F018
:1001C00028F0623059F0633069F0089580580E9439
:1001D0007900089580540E947900089580570E9404
:1001E0007900089580530E94790008950F931F931A
:1001F000CF93DF93883098F48B01880F880F880F96
:10020000805C0E947900E801085F1F4F89910E947D
:100210008800C017D107D1F780E80E947900DF91EC
:10022000CF911F910F910895CF92DF92EF92FF929D
:100230000F931F93CF93DF93CDB7DEB7A1970FB680
:10024000F894DEBF0FBECDBF423009F452C04A3031
:1002500019F0403109F058C03FEF320F3A3008F042
:1002600053C0E42FF0E0E22EF42E9F01AE014F5F69
:100270005F4F0E9497028981882309F441C0FE01E3
:10028000329611E08191882319F01F5F1132D1F766
:100290001E15A0F401C010E0CE2CD12CC11AD1083B
:1002A0001C141D048CF400E080E20E9488000F5FA3
:1002B000802F90E08C159D05BCF306C0E11620F45C
:1002C000FE01EE0DF11D11822AE0F21205C0CE01F1
:1002D00001960E94970018C0812F90E08E19910915
:1002E00021E030E02C0F3D1F820F931F0E949700EA
:1002F0000BC03FEF320F3A3038F4E2E0F0E0B3CF1A
:10030000E110C9CF10E0E0CFA1960FB6F894DEBFA0
:100310000FBECDBFDF91CF911F910F91FF90EF9056
:10032000DF90CF9008955D9903C000005D9BFDCFE5
:100330008CB980E090E00895CF935F9BFECF5C9BEB
:1003400004C08CB180E090E016C05B9B04C08CB10F
:1003500080E090E010C05A9B04C08CB180E090E037
:100360000AC0CCB160919000709191008C2F0E94D6
:1003700093018C2F90E0CF910895599810BC8CE494
:1003800089B986E880BD88E18AB9EEE8F0E080E6C8
:1003900090E093838283918380830895CF93DF934A
:1003A000CDB7DEB728970FB6F894DEBF0FBECDBF2E
:1003B0000E94B00088E0EEE6F0E0DE0111960190C8
:1003C0000D928A95E1F7BE016F5F7F4F80E00E943A
:1003D000F6000E94BD010E94490080E00E944E008C
:1003E000412C512C3201689452F809E710E00E9428
:1003F00054000024880F991F001C880F991F001CAF
:10040000892F902D4C01A12CB12CA8E8B3E1A501B6
:1004100094010E947D026B017C010B2EBAE0F694E0
:10042000E794D794C794BA95D1F7B02DA8EEB3E06E
:100430000E947D02A3019201281939094A095B092A
:100440000E945B0249015A010E94D40086E790E0B5
:100450000E949700C701B6018827992725E04AE046
:100460000E941401DF92CF921F930F930E94C40247
:1004700087E890E00E94970061E080E00E94DE0043
:100480008AE890E00E949700C501B4018827992767
:1004900025E04AE00E94140180E00E9488009F92BB
:1004A0008F921F930F930E94C4020FB6F894DEBF81
:1004B0000FBECDBF9CCFA1E21A2EAA1BBB1BFD0114
:1004C0000DC0AA1FBB1FEE1FFF1FA217B307E40733
:1004D000F50720F0A21BB30BE40BF50B661F771F8B
:1004E000881F991F1A9469F760957095809590956B
:1004F0009B01AC01BD01CF0108950E948802A59F18
:10050000900DB49F900DA49F800D911D112408950E
:10051000A29FB001B39FC001A39F700D811D112444
:10052000911DB29F700D811D1124911D08952532DA
:10053000310520F4223010F00C94A202FA0110824E
:10054000CA010895BB27FA01A62F6217710581051C
:100550009105330B30FB66F0AA27660F771F881FC3
:10056000991FAA1FA21710F0A21B63953850A9F774
:10057000A05DAA3308F0A95DA19336F7B111B1933C
:100580001082CA010C94D104A0E0B0E0EAECF2E0E1
:100590000C948B05AE014B5F5F4FFA016191719135
:1005A000AF0180919000909191000E94DA02E2E008
:1005B0000C94A705ABE0B0E0E0EEF2E00C947B0514
:1005C0006C017B018A01FC0117821682838181FF05
:1005D000CCC1CE0101963C01F6019381F70193FD58
:1005E000859193FF81917F01882309F4BAC18532F7
:1005F00039F493FD859193FF81917F01853229F430
:10060000B60190E00E94E104E7CF912C212C312C1F
:10061000FFE1F315D8F08B3279F038F4803279F0BD
:100620008332A1F4232D20611DC08D3261F080330F
:1006300069F4232D216016C0832D8260382EE32DAE
:10064000E4603E2E2AC0F32DF8601DC037FC2DC09B
:1006500020ED280F2A3040F08E32B9F436FC81C1EB
:10066000232D2064322E19C036FE06C08AE0989EE3
:10067000200D1124922E11C0EAE02E9E200D11248F
:10068000222EF32DF0623F2E08C08C3621F4832DEC
:100690008068382E02C0883641F4F70193FD8591B9
:1006A00093FF81917F018111B3CF982F9F7D955446
:1006B000933028F40C5F1F4F9FE399830DC083365E
:1006C00031F0833771F0833509F059C021C0F8014A
:1006D000808189830E5F1F4F88248394912C53015E
:1006E00013C02801F2E04F0E511CF801A080B18028
:1006F00036FE03C0692D70E002C06FEF7FEFC501C9
:100700000E94C6044C018201F32DFF773F2E16C0D4
:10071000280122E0420E511CF801A080B18036FE73
:1007200003C0692D70E002C06FEF7FEFC5010E942A
:10073000BB044C01F32DF0683F2E820133FC1BC03B
:10074000822D90E088169906B0F4B60180E290E020
:100750000E94E1042A94F4CFF50137FC859137FE1D
:1007600081915F01B60190E00E94E10421102A947A
:1007700021E0821A91088114910471F7E8C084364F
:1007800011F0893641F5F80137FE07C060817181AB
:10079000828193810C5F1F4F08C060817181072E99
:1007A000000C880B990B0E5F1F4FF32DFF763F2E29
:1007B00097FF09C090958095709561957F4F8F4FF9
:1007C0009F4FF0683F2E2AE030E0A3010E941D05F4
:1007D000882E861845C0853731F4232D2F7EB22E02
:1007E0002AE030E025C0932D997FB92E8F36C1F0D5
:1007F00018F4883579F0B5C0803719F0883721F0C2
:10080000B0C0E92FE061BE2EB4FE0DC0FB2DF46038
:10081000BF2E09C034FE0AC0292F2660B22E06C0A2
:1008200028E030E005C020E130E002C020E132E005
:10083000F801B7FE07C060817181828193810C5FEE
:100840001F4F06C06081718180E090E00E5F1F4FF6
:10085000A3010E941D05882E8618FB2DFF773F2ED1
:1008600036FE0DC0232D2E7FA22E891458F434FE9F
:100870000BC032FC09C0832D8E7EA82E05C0B82C7B
:10088000A32C03C0B82C01C0B92CA4FE0FC0FE01DC
:10089000E80DF11D8081803321F49A2D997EA92ED7
:1008A00009C0A2FE06C0B394B39404C08A2D867812
:1008B00009F0B394A3FC11C0A0FE06C0B21488F4E2
:1008C000280C922C9B180EC0B21460F4B60180E282
:1008D00090E00E94E104B394F7CFB21418F42B18FF
:1008E00002C0982C212CA4FE10C0B60180E390E039
:1008F0000E94E104A2FE17C0A1FC03C088E790E0BB
:1009000002C088E590E0B6010CC08A2D867859F0C7
:10091000A1FE02C08BE201C080E2A7FC8DE2B6011D
:1009200090E00E94E104891438F4B60180E390E07D
:100930000E94E1049A94F7CF8A94F301E80DF11D27
:100940008081B60190E00E94E1048110F5CF222061
:1009500009F442CEB60180E290E00E94E1042A94BC
:10096000F6CFF6018681978102C08FEF9FEF2B961D
:10097000E2E10C949705FC01059061507040011074
:10098000D8F7809590958E0F9F1F0895FC016150B8
:10099000704001900110D8F7809590958E0F9F1FA1
:1009A0000895DC01FC01672F71917723E1F73297FD
:1009B00004C07C916D9370836291AE17BF07C8F33A
:1009C00008950F931F93CF93DF93FB01238121FDA4
:1009D00003C08FEF9FEF2CC022FF16C046815781C6
:1009E000248135814217530744F4A081B1819D01D0
:1009F0002F5F3F4F318320838C93268137812F5F78
:100A00003F4F3783268314C08B01EC01FB01008428
:100A1000F185E02D0995892BE1F6D80116968D9187
:100A20009C911797019617969C938E931697CE01DB
:100A3000DF91CF911F910F910895FA01AA272830D5
:100A400051F1203181F1E8946F936E7F6E5F7F4F9B
:100A50008F4F9F4FAF4FB1E03ED0B4E03CD0670F17
:100A6000781F891F9A1FA11D680F791F8A1F911D6A
:100A7000A11D6A0F711D811D911DA11D20D009F4BA
:100A800068943F912AE0269F11243019305D3193FC
:100A9000DEF6CF010895462F4770405D4193B3E0E5
:100AA0000FD0C9F7F6CF462F4F70405D4A3318F08C
:100AB000495D31FD4052419302D0A9F7EACFB4E03D
:100AC000A6959795879577956795BA95C9F70097F5
:100AD0006105710508959B01AC010A2E0694579596
:100AE000479537952795BA95C9F7620F731F841FED
:100AF000951FA01D08952F923F924F925F926F9283
:100B00007F928F929F92AF92BF92CF92DF92EF929D
:100B1000FF920F931F93CF93DF93CDB7DEB7CA1B1E
:100B2000DB0B0FB6F894DEBF0FBECDBF09942A8849
:100B3000398848885F846E847D848C849B84AA84F1
:100B4000B984C884DF80EE80FD800C811B81AA817E
:100B5000B981CE0FD11D0FB6F894DEBF0FBECDBF49
:080B6000ED010895F894FFCFA8
:100B6800000000030000000093019C010000000049
:100B78000E11110A0A1B553D00566F6C74616765AA
:0E0B88003A2025640D0A006D5600523D000013
:00000001FF
